:020000040800F2
:100000000050002055020008FD0A0008090B0008F6
:10001000110B0008190B0008210B0008000000005C
:10002000000000000000000000000000290B000894
:10003000350B000800000000410B00084D0B0008C4
:100040008902000889020008890200088902000864
:100050008902000889020008890200088902000854
:100060008902000889020008890200088902000844
:100070008902000889020008890200088902000834
:100080008902000889020008890200088902000824
:100090008902000889020008890200088902000814
:1000A0008902000889020008890200088902000804
:1000B00089020008890200088902000889020008F4
:1000C00089020008890200088902000889020008E4
:1000D00089020008890200088902000889020008D4
:1000E00089020008890200088902000889020008C4
:1000F00089020008890200088902000889020008B4
:1001000089020008890200088902000889020008A3
:100110008902000889020008890200088902000893
:100120008902000889020008890200088902000883
:1001300000000000000000000000000000000000BF
:1001400000000000000000000000000000000000AF
:10015000000000000000000000000000000000009F
:10016000000000000000000000000000000000008F
:10017000000000000000000000000000000000007F
:10018000000000000000000000000000000000006F
:10019000000000000000000000000000000000005F
:1001A000000000000000000000000000000000004F
:1001B000000000000000000000000000000000003F
:1001C000000000000000000000000000000000002F
:1001D0000000000000000000000000005FF8E0F1F7
:1001E00080B483B000AF164B7B60164B3B607A68DF
:1001F0003B689A4210D00BE07B681A683B681A6033
:100200003B6803F104033B607B6803F104037B60FC
:100210003A680D4B9A42EFD30C4B3B6007E03B68CA
:100220004FF000021A603B6803F104033B603A6838
:10023000074B9A42F3D307F10C07BD4680BC7047C9
:100240003045000800000020300000203000002071
:1002500050050020684620F007018D4689B500AFA3
:10026000FFF7BEFF064A074B23F0684323F07F03E6
:1002700043F00063936000F06FFC01F0D7FCFEE7F1
:1002800000ED00E00000000080B400AFFEE700BF1A
:1002900080B400AFBFF34F8FBD4680BC704700BF36
:1002A00080B500AF054A054BDB6803F4E061044B01
:1002B00041EA0303D360FFF7EBFFFEE700ED00E048
:1002C0000400FA0580B487B000AF786039602B4B2A
:1002D0003B614FF00003FB604FF00003BB604FF049
:1002E00000037B6141E07A68FB68D31839683A699A
:1002F000B1FBF2F2D2B202F13002D2B21A70FB6854
:1003000003F10103FB603B683A69B3FBF2F2396920
:1003100001FB02F29B1A3B603A69194BA3FB0213E3
:100320004FEAD3033B61FB6803F1FF337A68D318CC
:100330001B78302B14BF00230123DAB2BB68002BDB
:1003400014BF00230123DBB202EA0303DBB2002B5C
:1003500003D04FF00003FB6003E0BB6803F101032F
:10036000BB607B6903F101037B617B69092BBAD90F
:1003700007F11C07BD4680BC704700BF00CA9A3B0E
:10038000CDCCCCCC80B487B000AF786039604FF072
:1003900000037B614FF000033B614FF00003FB6003
:1003A0007B681B78302B40F08F807B6803F1010362
:1003B0001B78782B06D07B6803F101031B78582B40
:1003C00040F082807B6803F102031B78002B02D18E
:1003D0004FF00003ECE04FF002037B616AE07A68C3
:1003E0007B69D3181B78002B06D1FA683B681A602A
:1003F0004FF001033B6160E07A687B69D3181B789A
:10040000402B05D97A687B69D3181B78462B17D9FE
:100410007A687B69D3181B78602B05D97A687B6969
:10042000D3181B78662B0BD97A687B69D3181B7895
:100430002F2B3BD97A687B69D3181B78392B35D899
:10044000FB684FEA031279687B69CB181B782F2B66
:100450000CD979687B69CB181B78392B06D8796859
:100460007B69CB181B78A3F1300318E079687B69AE
:10047000CB181B78402B0CD979687B69CB181B787B
:10048000462B06D879687B69CB181B78A3F1370314
:1004900005E079687B69CB181B78A3F15703D31863
:1004A000FB607B6903F101037B6103E04FF0000314
:1004B0003B6102E07B690A2B91D97B690A2B76D9D3
:1004C0004FF000033B6172E04FF000037B6165E099
:1004D0007A687B69D3181B78002B06D1FA683B68D1
:1004E0001A604FF001033B615BE07A687B69D318C7
:1004F0001B786B2B05D07A687B69D3181B784B2B44
:100500000DD17B69002B0AD0FB684FEA8323FB6087
:10051000FA683B681A604FF001033B6141E07A687A
:100520007B69D3181B786D2B05D07A687B69D3184B
:100530001B784D2B0DD17B69002B0AD0FB684FEA4D
:100540000353FB60FA683B681A604FF001033B619C
:1005500027E07A687B69D3181B782F2B1AD97A6821
:100560007B69D3181B78392B14D8FA6813464FEAE5
:1005700083039B184FEA43031A4679687B69CB18BB
:100580001B78D318A3F13003FB607B6903F10103EF
:100590007B6103E04FF000033B6102E07B690A2BC3
:1005A00096D97B690A2B02D94FF000033B613B6966
:1005B000184607F11C07BD4680BC704780B586B061
:1005C00000AF786007F10803184600F091F83B7A15
:1005D000002B01D100BFF5E73B7A612B02D03B7ABB
:1005E000412B08D17B7A002B05D10D4800F06AF829
:1005F0004FF000030EE007F1080318467968FFF793
:10060000C1FE0346002B03D1064800F05BF8D9E792
:100610004FF00103184607F11807BD4680BD00BF23
:10062000883E00089C3E000880B582B000AF78602C
:100630000B484FF0200102F08BFE0346002B08D040
:10064000074B9B889BB2DAB27B681A704FF00103AC
:1006500001E04FF00003184607F10807BD4680BDD2
:100660000038014080B582B000AF4FF00003FB714D
:1006700000E000BF07F107031846FFF7D5FF034668
:10068000002BF6D0FB79184607F10807BD4680BD60
:1006900080B582B000AF0346FB71FB799BB208487E
:1006A000194602F0FFFC00BF05484FF0800102F040
:1006B0004FFE0346002BF7D007F10807BD4680BD6B
:1006C0000038014080B582B000AF786008E07B68F8
:1006D0001B781846FFF7DCFF7B6803F101037B60A2
:1006E0007B681B78002BF2D107F10807BD4680BD5F
:1006F00080B584B000AF78604FF00003FB604FF02E
:100700000003FB7202E000BF00E000BFFFF7AAFF9A
:100710000346FB72FB7A0D2B0CD11D48FFF7D2FF6D
:100720007A68FB68D3184FF000021A7007F11007BF
:10073000BD4680BDFB7A082B0AD1FB68002B06D092
:100740001448FFF7BFFFFB6803F1FF33FB601DE0B8
:10075000FB687F2B06D91048FFF7B4FF4FF000036A
:10076000FB6013E0FB7A1F2BCDD9FB7A7E2BCCD814
:100770007A68FB68D318FA7A1A70FB6803F10103F0
:10078000FB60FB7A1846FFF783FFBFE7BEE700BFB9
:10079000B43E0008B83E0008BC3E000880B485B0F6
:1007A00000AF78604FF00003FB607B68BB60BB6804
:1007B0004FEA43534FEA5353002B06D0BB684FEA2E
:1007C000D32303F10103FB6003E0BB684FEAD323AB
:1007D000FB60FB68184607F11407BD4680BC7047F4
:1007E00080B584B000AF4FF000037B604FF0000392
:1007F0003B604FF00103FB814FF00203BB814FF0E0
:1008000004037B814FF001037B7202F01FF8386014
:100810002F4B1A683B681A402D4B1B689A424FD0E9
:1008200002F008F878602A4B1A683B681A43284B94
:100830001A6001F077FD03467B72254B1B68B3F10C
:10084000FF3F08D0224B1B686FEA0303184601F0F4
:100850009DFE03467B727B6803F00703072B1FD0C6
:100860007B6803F00103002B02D14FF00003FB81F2
:100870007B6803F00203002B02D14FF00003BB8121
:100880007B6803F00403002B02D14FF000037B814F
:10089000F989BA897B89084611461A4601F07CFF1E
:1008A0007B7A042B08D10B48FFF70CFF0A48FFF7AF
:1008B00009FFFFF7F5FC06E00848FFF703FF02E039
:1008C0000748FFF7FFFE07F11007BD4680BD00BFD8
:1008D00034000020DC3E0008FC3E0008483F0008D1
:1008E000743F000880B582B000AF4FF00003FB7189
:1008F0003F4B1B6803F178434FEA13323D4B1A60BC
:100900003C4B1B683D2B0BD83A4B1B684FF0010248
:1009100002FA03F3C3F100031A46374B1A6003E0EF
:10092000354B4FF000421A6001F090FF0246324B07
:100930001B681A40304B1B689A4204D02F4B4FF073
:1009400001021A6003E02D4B4FF000021A602C48A0
:10095000FFF7B8FE2B48FFF7B5FE2B48FFF7B2FEB6
:100960002A48FFF7AFFE254B1B68002B02D0284812
:10097000FFF7A8FE2748FFF7A5FEFFF773FE034623
:10098000FB71FB79312B02D100F052F8DFE7FB79E4
:10099000322B02D100F010FAD9E7FB79332B11D1B9
:1009A0001D4B1A681D4B1A601C4B1B681A461C4BCA
:1009B0001A601C4B1B68184601F05AFA184B1B684A
:1009C0009847C4E7FB79342B06D10C4B1B68012BED
:1009D00002D1FFF705FFBAE7084B1B68002B03D1D4
:1009E0001148FFF76FFEB2E71048FFF76BFEAEE766
:1009F00014000020300000203400002038000020C7
:100A0000983F0008D83F00081840000858400008E8
:100A100098400008D8400008043000084404002032
:100A20004804002000300008184100085441000824
:100A300080B584B000AF254A3B4607CA03C31A807D
:100A40004FF00003FB602248FFF73CFE214800F016
:100A50009FFAF860FB68002B18DD1F48FFF732FE95
:100A60001E48FFF72FFE3B461846F968FFF72AFCA1
:100A70001B48FFF727FE3B461846FFF723FE1948A1
:100A8000FFF720FE1848FFF71DFE1AE0FB68B3F1E0
:100A9000FF3F03D11548FFF715FE12E0FB6813F185
:100AA000020F03D11248FFF70DFE0AE0FB6813F1B5
:100AB000030F03D10F48FFF705FE02E00E48FFF7D2
:100AC00001FE07F11007BD4680BD00BFE8420008E7
:100AD000944100083C000020D04100085004002050
:100AE00024420008304200083C42000854420008FA
:100AF00094420008B0420008C842000880B400AF29
:100B0000BD4680BC704700BF80B400AFFEE700BFA9
:100B100080B400AFFEE700BF80B400AFFEE700BFC7
:100B200080B400AFFEE700BF80B400AFBD4680BC1C
:100B3000704700BF80B400AFBD4680BC704700BFA7
:100B400080B400AFBD4680BC704700BF80B400AF2A
:100B5000BD4680BC704700BF80B500AF154B154A3D
:100B6000126842F001021A60124A124B5968124B85
:100B700001EA030353600F4A0E4B1B6823F0847392
:100B800023F4803313600B4B0A4A126822F480224C
:100B90001A60084B074A526822F4FE025A60054B5D
:100BA0004FF41F029A6000F07DF8044B4FF0006292
:100BB0009A6080BD001002400000FFF800ED00E0E8
:100BC00080B485B000AF4FF00003FB604FF000032E
:100BD000BB604FF000037B602D4B5B6803F00C03A0
:100BE000FB60FB68042B07D0082B09D0002B35D104
:100BF000284B294A1A6035E0264B274A1A6031E013
:100C0000234B5B6803F47013BB60214B5B6803F4F8
:100C100080337B60BB684FEA934303F10203BB6000
:100C20007B68002B06D1BB681C4A02FB03F2194B00
:100C30001A6017E0164B5B6803F40033002B06D0F4
:100C4000BB68164A02FB03F2124B1A600AE0BB684B
:100C5000114A02FB03F20F4B1A6003E00D4B0E4AE0
:100C60001A6000BF0A4B5B6803F0F0034FEA1313EE
:100C70000B4AD35CDBB2FB60064B1A68FB6822FAB6
:100C800003F2044B1A6007F11407BD4680BC70479D
:100C9000001002400000002000127A0000093D0010
:100CA0000400002080B500AF00F002F880BD00BF56
:100CB00080B483B000AF4FF000037B604FF00003BF
:100CC0003B603B4B3A4A126842F480321A60384B20
:100CD0001B6803F400333B607B6803F101037B6016
:100CE0003B68002B03D17B68B3F5A06FEFD1304B8D
:100CF0001B6803F40033002B03D04FF001033B606B
:100D000002E04FF000033B603B68012B4BD1294BC5
:100D1000284A126842F010021A60264B254A1268CF
:100D200022F003021A60234B224A126842F00202A8
:100D30001A601F4B1E4A52685A601D4B1C4A52686B
:100D40005A601B4B1A4A526842F480625A60184B30
:100D5000174A526822F47C125A60154B144A5268A2
:100D600042F4E8125A60124B114A126842F0807243
:100D70001A6000BF0E4B1B6803F00073002BF9D004
:100D80000B4B0B4A526822F003025A60084B084A88
:100D9000526842F002025A6000BF054B5B6803F0E4
:100DA0000C03082BF9D107F10C07BD4680BC704736
:100DB000001002400020024080B582B000AF4FF02A
:100DC00000037B601048FFF77DFCFFF74BFC0346F8
:100DD000432B12D10D480E494FF4FA2200F090FC3B
:100DE00003467B607B68002B03D00A48FFF76AFC50
:100DF00006E00948FFF766FC02E00848FFF762FCDE
:100E000007F10807BD4680BDF44200080030000825
:100E10002C43000844430008704300089443000832
:100E200080B582B000AF7860396008E07868FFF77D
:100E3000FBFB0346012B02D14FF000030DE03B68A2
:100E4000002B0CBF00230123DBB23A6802F1FF3212
:100E50003A60002BEAD14FF0FF33184607F108073C
:100E6000BD4680BD80B582B000AF0346FB71FB7903
:100E70001846FFF70DFC4FF00003184607F108076E
:100E8000BD4680BD80B586B000AFF860B9607A60BD
:100E9000BB684FF000021A6007F113031846796827
:100EA000FFF7BEFF0346002B02D04FF0FF336AE08E
:100EB000FB7C042B15D0042B04DC012B09D0022B66
:100EC0000BD02AE0412B25D0612B23D0182B0BD03F
:100ED00023E04FF08003BB8222E04FF48063BB82AB
:100EE0001EE04FF000034EE007F113031846796847
:100EF000FFF796FF0346002B09D1FB7C182B06D188
:100F0000BB684FF0FF321A604FF000033BE04FF038
:100F1000FF3338E04FF0010335E04FF0FF3332E0AC
:100F2000FA7CFB681A704FF00103FB8210E0FB8A29
:100F3000FA68D31818467968FFF772FF0346002B4A
:100F400002D04FF0FF331EE0FB8A03F10103FB8266
:100F5000FA8ABB8A03F105039A42E8DBFB6803F1D6
:100F600001031A78FB6803F102031B786FEA03039D
:100F7000DBB29A4202D04FF0FF3304E0BA8ABB687A
:100F80001A604FF00003184607F11807BD4680BDF0
:100F900080B5ADF58A6D00AF07F11003A3F10C0326
:100FA000186007F11003A3F104034FF000021A6068
:100FB000B04BB14A1A604FF00003C7F840344FF00D
:100FC0000003C7F834344FF00003C7F8303400E0B2
:100FD00000BF4FF00003C7F838344FF00003C7F8E4
:100FE0003C3407F11003A3F10C031B68C7F82C3441
:100FF00000E000BF07F13003A3F10C0307F110027A
:10100000184611464FF48012FFF73CFF0346002BB1
:1010100003D0012B00F093819CE14FF00003C7F84F
:10102000343407F110031B68B3F1FF3F02D0002BEB
:1010300007D00FE04FF00600FFF714FF4FF000035A
:10104000B5E14FF00600FFF70DFF4FF00103C7F8C1
:101050003C3473E107F13003A3F10C035B781A46CB
:10106000D7F8383403F0FF039A4204D04FF015004C
:10107000FFF7F8FE8CE1D7F83834002B40F0DF8022
:1010800007F13003A3F10C03DB78002B00F0CA80DA
:101090004FF00003C7F8483407F13003A3F10C0305
:1010A00003F10303C7F84C3413E0D7F84C341A7833
:1010B0007249D7F84834CB181A70D7F8483403F17E
:1010C0000103C7F84834D7F84C3403F10103C7F8DB
:1010D0004C34D7F84C341B78002B03D0D7F8483465
:1010E000FF2BE2DD654AD7F84834D3184FF00002F1
:1010F0001A70D7F8483403F10103C7F848344FF0A9
:101100000003C7F84834D7F84C3403F10103C7F89B
:101110004C3416E0D7F84C341A7807F12003A3F1C9
:101120000C03D7F848145B181A70D7F8483403F149
:101130000103C7F84834D7F84C3403F10103C7F86A
:101140004C34D7F84C341B78202B03D0D7F84834D4
:101150000F2BDFDD07F12003A3F10C03D7F84824A0
:101160009B184FF000021A70D7F8483403F10103BE
:10117000C7F8483407F12002A2F10C0207F110036E
:10118000A3F1040310461946FFF7FCF807F110031A
:10119000A3F104031A683A4B9A420ADD4FF0180093
:1011A000FFF760FE4FF01800FFF75CFE4FF0FF33D3
:1011B000FDE007F11003A3F104031B681846FFF7D5
:1011C000EDFA02462F4B1A602F4B4FF000021A60C7
:1011D00015E02E4B1B882C4A126802FB03F2254BAC
:1011E0001B68D318184601F003F803461A46284B2B
:1011F0001A70254B1B6803F10102234B1A60224B26
:101200001A68204B1B689A4203D2214B1B78042B8F
:10121000DFD04FF00600FFF725FE4FF04300FFF749
:1012200021FE80E04FF00600FFF71CFE4FF00103A7
:10123000C7F83C344FF00103C7F840347EE007F1B3
:101240003003A3F10C0303F1030307F1100212684A
:10125000D7F82C04194602F06FFD07F11003A3F133
:101260000C031A680B4B1A604FF00003C7F84434A4
:1012700040E000BF140000200030000850040020AF
:10128000FFFF0700400400203C040020180000205D
:101290001A0000204C040020474B1A68474B1B687B
:1012A0001B681046194601F0AFF8434B1B681A68DB
:1012B000424B1B681B689A420AD04FF01800FFF798
:1012C000D1FD4FF01800FFF7CDFD6FF001036EE088
:1012D000394B1B6803F10402374B1A60374B1B680C
:1012E00003F10402354B1A60D7F8443403F10403C8
:1012F000C7F8443407F110031B68D7F844249A4216
:101300000DDA07F11003A3F104031B6803F1006376
:1013100003F540531A46284B1B689A42BCD84FF03D
:101320000600FFF79FFDD7F8383403F10103C7F833
:1013300038344FF00103C7F8303429E028E04FF08B
:101340001800FFF78FFD4FF01800FFF78BFD6FF0CF
:1013500002032CE0D7F83034002B05DDD7F8343405
:1013600003F10103C7F83434D7F83434052B0ADD10
:101370004FF01800FFF776FD4FF01800FFF772FDF1
:101380004FF0000313E04FF04300FFF76BFD00BF89
:10139000D7F83C34002B3FF42CAED7F84034002B68
:1013A0003FF416AE07F11003A3F104031B681846BF
:1013B00007F58A67BD4680BD140000204C0400205C
:1013C00080B483B000AF0346FB714FF000031846B2
:1013D00007F10C07BD4680BC704700BF80B588B0E0
:1013E00000AFF860B9607A60FB684FF001021A70D4
:1013F000FB6803F101034FF000021A70FB6803F170
:1014000002034FF0FF021A704FF00003FB830DE060
:10141000FB8B03F10303FA68D318FA8BB9688A18B7
:1014200012781A70FB8B03F10103FB83FB8BBA6804
:10143000D3181B78002B02D0FB8BFF2BE8D9FB8B3A
:1014400003F10303FA68D3184FF000021A707B68A7
:101450001B6807F1100210461946FEF733FF4FF0E4
:101460000003BB83FB8B03F10403FB8311E0FB8BC5
:10147000FA68D318BA8B07F120018A1812F8102CD9
:101480001A70FB8B03F10103FB83BB8B03F1010398
:10149000BB83BB8B07F12002D31813F8103C002B41
:1014A000E5D1FB8BBB8309E0BB8BFA68D3184FF007
:1014B00000021A70BB8B03F10103BB83BB8B822B31
:1014C000F2D907F12007BD4680BD00BF80B489B0C6
:1014D00000AFF860B9603B601346FB713A6840F2B8
:1014E000FF339A4202D94FF4806301E04FF080034A
:1014F000FB82FA8A3B689A4238BF1346BB82FB8A5A
:10150000B3F5806F04D1BB684FF002021A7003E09C
:10151000BB684FF001021A70BB6803F10103FA794E
:101520001A70BB6803F10203FA796FEA0202D2B2C1
:101530001A70FB68BB614FF00303FB830DE0FB8B6C
:10154000BA68D318BA6912781A70BB6903F101033B
:10155000BB61FB8B03F10103FB83FA8BBB8A03F1B5
:1015600003039A42EBDBBA8AFB8A9A4214D8BB8AFD
:1015700003F10303FB8309E0FB8BBA68D3184FF038
:101580001A021A70FB8B03F10103FB83FA8BFB8AAF
:1015900003F103039A42EFDB07F12407BD4680BC49
:1015A000704700BF80B485B000AF02460B46FA809A
:1015B0007B71FB88FB607B7943F48073BB60FB68C5
:1015C0004FEA4303FB60BB684FEA4303BB60BB6861
:1015D00003F48073002B03D0FB6803F10103FB606D
:1015E000FB6803F48033002B05D0FB6883F4805341
:1015F00083F02103FB60BB6803F48033002BDED053
:10160000FB689BB2184607F11407BD4680BC7047C3
:1016100080B584B000AF786039604FF00003FB60A4
:101620007A683B68D318BB600DE0FB689AB27B68B0
:101630001B78796801F10101796010461946FFF7BE
:10164000B1FF0346FB607A68BB689A42EDD3FB6842
:101650009BB218464FF00001FFF7A4FF0346FB6062
:10166000FB689BB218464FF00001FFF79BFF034653
:10167000FB60FB689BB2184607F11007BD4680BDB2
:1016800080B485B000AF786039604FF00003FB6034
:101690007A683B68D318BB6008E07B681B78FA68FF
:1016A000D318FB607B6803F101037B607A68BB6839
:1016B0009A42F2D3FB68DBB2184607F11407BD4625
:1016C00080BC704780B584B000AF78600B467B80EB
:1016D0004FF00003FB810AE0FB897A68D3181B787E
:1016E0001846FFF7BFFBFB8903F10103FB81FA8971
:1016F0007B889A42F0D307F11007BD4680BD00BF3A
:1017000080B5ADF5A76D00AF07F11803A3F10C0389
:10171000186007F10803196007F10803A3F1040337
:101720001A604FF0000387F81F354FF00003C7F829
:1017300024354FF00003C7F82C354FF00003C7F8ED
:1017400028354FF0000387F8313513E097F831253D
:1017500097F8313507F108010968CB18197807F1B6
:101760001803A3F10403995497F8313503F10103E9
:1017700087F8313597F83135FF2BE7D14FF001036A
:1017800087F81F3507F58C71A1F1040107F11802E4
:10179000A2F1040207F10803A3F10403084611466D
:1017A0001A46FFF71BFE07F58C73A3F104031846D6
:1017B0004FF08301FFF786FF97F81F35002B1DD0F0
:1017C00007F58C73A3F1040303F1030318464FF0EC
:1017D0008001FFF71DFF0346A7F81C35B7F81C353D
:1017E0004FEA13239BB2DBB21846FFF73BFBB7F877
:1017F0001C35DBB21846FFF735FB12E007F58C739A
:10180000A3F1040303F1030318464FF08001FFF72F
:1018100037FF034687F81B3597F81B351846FFF747
:1018200021FB07F11003184642F21071FFF7F8FA96
:101830000346002B09D107F110031B78062B0AD1B0
:101840004FF00103C7F8283505E0D7F82C3503F130
:101850000103C7F82C35D7F82835002B03D1D7F86A
:101860002C35092B9FD9D7F82C35092B03D9D7F85C
:101870002C35DBB2D1E107F11803A3F10C031B688F
:10188000C7F8343507F10803A3F104031B68C7F850
:1018900024354FF00103A7F83235C4E0B7F83235EC
:1018A000DAB207F58C73A3F10403D7F834051946AF
:1018B000D7F82435FFF70AFE4FF00003C7F82835A4
:1018C00007F110034FF000021A704FF00003C7F841
:1018D0002C35D7F8242540F2FF339A4204D94FF42F
:1018E0008063C7F8203503E04FF08003C7F8203548
:1018F000D7F820359BB203F103039AB207F58C7336
:10190000A3F1040318461146FFF7DCFE97F81F35D4
:10191000002B1DD007F58C73A3F1040303F103031F
:101920001846D7F82015FFF773FE0346A7F81C35B5
:10193000B7F81C354FEA13239BB2DBB21846FFF70A
:1019400091FAB7F81C35DBB21846FFF78BFA12E0B4
:1019500007F58C73A3F1040303F103031846D7F8CA
:101960002015FFF78DFE034687F81B3597F81B35CA
:101970001846FFF777FA07F110031846AA49FFF750
:101980004FFA0346002B37D107F110031B78062BC3
:1019900032D14FF00103C7F82835D7F82425D7F8FE
:1019A00020359A421CD9D7F83425D7F82035D318DA
:1019B000C7F83435D7F82425D7F82035D31AC7F817
:1019C0002435B7F83235B3F5FA7F02D14FF0FF0373
:1019D00023E1B7F8323503F10103A7F8323511E0FE
:1019E000D7F83425D7F82035D318C7F834354FF059
:1019F0000003C7F8243505E0D7F82C3503F10103BF
:101A0000C7F82C35D7F82835002B04D1D7F82C355A
:101A1000092B7FF65EAFD7F82C35092B03D9D7F801
:101A20002C35DBB2F9E0D7F82435002B7FF436AF44
:101A30004FF00003C7F8283507F110034FF00002FC
:101A40001A704FF00003C7F82C354FF00400FFF771
:101A500009FA07F11003184642F21071FFF7E0F996
:101A60000346002B09D107F110031B78062B04D184
:101A70004FF00103C7F8283505E0D7F82C3503F1FE
:101A80000103C7F82C35D7F82835002B03D1D7F838
:101A90002C35092BD9D9D7F82C35092B03D9D7F8F0
:101AA0002C35DBB2B9E04FF00003C7F8283507F159
:101AB00010034FF000021A704FF00003C7F82C35E6
:101AC00007F58C73A3F104034FF001021A7007F5B8
:101AD0008C73A3F104034FF000025A7007F58C7366
:101AE000A3F104034FF0FF029A704FF0030387F84D
:101AF00031350EE097F8312507F58C73A3F1040317
:101B00004FF00001995497F8313503F1010387F83C
:101B1000313597F83135822BECD907F58C73A3F169
:101B2000040318464FF08301FFF7CCFD07F58C73D3
:101B3000A3F1040303F1030318464FF08001FFF7FC
:101B400067FD0346A7F81C35B7F81C354FEA132389
:101B50009BB2DBB21846FFF785F9B7F81C35DBB24C
:101B60001846FFF77FF907F11003184642F210718B
:101B7000FFF756F90346002B09D107F110031B7834
:101B8000062B0AD14FF00103C7F8283505E0D7F836
:101B90002C3503F10103C7F82C35D7F82835002B75
:101BA00003D1D7F82C35092BB7D9D7F82C35092B09
:101BB00003D9D7F82C35DBB22FE04FF00400FFF744
:101BC00051F907F11003184642F21071FFF728F996
:101BD0000346002B09D107F110031B78062B04D113
:101BE0004FF00103C7F8283505E0D7F82C3503F18D
:101BF0000103C7F82C35D7F82835002B03D1D7F8C7
:101C00002C35092BD9D9D7F82C35092B03D9D7F87E
:101C10002C35DBB201E04FF00003184607F59C7746
:101C200007F58067BD4680BDA086010080B582B003
:101C300000AF00F0C7F800F09BFA2D4B2C4A9269D8
:101C400042F00D029A612B4B43F233321A602A4B59
:101C50004FF088021A60284B274AD26842F00302EC
:101C6000DA60244B234A126942F470221A61224B33
:101C70009B6803F00203002B1CD100F055F81F48AD
:101C8000FEF720FD1E48FEF71DFD1E48FEF71AFD5B
:101C90001D48FEF717FD1B48FEF714FD1B48FEF715
:101CA00011FD1648FEF70EFD1948FEF70BFDFEF775
:101CB00019FE1CE0174B1B687B607A68164B02EA22
:101CC00003033B603B68B3F1005F10D1134B1A680C
:101CD000134B1A60124B1B681A46124B1A600D4BBD
:101CE0001B68184600F0C4F80E4B1B689847FEE7C7
:101CF0000010024000080140000C0140AC43000805
:101D0000F84300084444000890440008DC440008FC
:101D100028450008003000080000FE2F04300008AD
:101D2000440400204804002080B483B000AF40F297
:101D300071237B601E4B1E4A926942F00D029A612C
:101D40001B4B1B4A926942F480429A61194B194A13
:101D5000526822F004025A60174B174A928992B2D5
:101D600042F4005292B29A81134B134A128A92B2F1
:101D700022F4405292B21A820F4B7A6892B21A81C0
:101D80000D4B0D4A928992B222F4805292B29A81FE
:101D90000A4B0B4A5A60084B074A928992B242F0AA
:101DA0000C0292B29A8107F10C07BD4680BC7047C5
:101DB00000100240000001400038014000080140CE
:101DC000B444444480B400AF1D4B1D4A126842F431
:101DD00080321A6000BF1A4B1B6803F40033002BDB
:101DE000F9D0174B164A526842F4E8125A60144B65
:101DF000134A126842F080721A6000BF104B1B68D1
:101E000003F00073002BF9D00D4B0D4A526842F4D9
:101E100080625A600B4B0B4A126842F002021A6051
:101E2000074B074A526842F002025A6000BF044B57
:101E30005B6803F00803002BF9D0BD4680BC7047F7
:101E400000100240002002404FF00004EFF309842C
:101E50002046704723461846034683F30988704797
:101E60004FF00004EFF308842046704723461846DD
:101E7000034683F30888704790B482B000AF4FF0F8
:101E800000037B60EFF312847C607B68184607F1E7
:101E90000807BD4690BC704780B483B000AF78603F
:101EA0007B6883F3118807F10C07BD4680BC70473F
:101EB00090B482B000AF4FF000037B60EFF310846A
:101EC0007C607B68184607F10807BD4690BC7047E8
:101ED00080B483B000AF78607B6883F3108807F12B
:101EE0000C07BD4680BC704790B482B000AF4FF085
:101EF00000037B60EFF313847C607B68184607F176
:101F00000807BD4690BC704780B483B000AF7860CE
:101F10007B6883F3138807F10C07BD4680BC7047CC
:101F200090B482B000AF4FF000037B60EFF31484F5
:101F30007C607B68184607F10807BD4690BC704777
:101F400080B483B000AF78607B6883F3148807F1B6
:101F50000C07BD4680BC704790B484B000AF786079
:101F60004FF00003FB607B681CBAFC60FB681846FE
:101F700007F11007BD4690BC704700BF90B484B015
:101F800000AF0346FB804FF00003FB60FB885CBAA8
:101F9000FC60FB68184607F11007BD4690BC70470F
:101FA00090B484B000AF0346FB804FF00003FB60A9
:101FB000FB88DCBAFC60FB68184607F11007BD46D9
:101FC00090BC704790B484B000AF78604FF00003CD
:101FD000FB607B6893FAA3F4FC60FB68184607F18A
:101FE0001007BD4690BC704790B484B000AF7860D5
:101FF0004FF00003FB737B68D3E84F4FFC73FB7B10
:10200000184607F11007BD4690BC704790B484B0E5
:1020100000AF78604FF00003FB817B68D3E85F4F2F
:10202000FC81FB89184607F11007BD4690BC70473C
:1020300090B484B000AF78604FF00003FB607B6821
:1020400053E8004FFC60FB68184607F11007BD46D7
:1020500090BC704790B484B000AF03463960FB7108
:102060004FF00003FB603B68FA79C3E8442FFC6043
:10207000FB68184607F11007BD4690BC704700BFCB
:1020800090B484B000AF03463960FB804FF000038A
:10209000FB603B68FA88C3E8542FFC60FB68184675
:1020A00007F11007BD4690BC704700BF90B484B0E4
:1020B00000AF786039604FF00003FB603B687A68DE
:1020C00043E80024FC60FB68184607F11007BD4692
:1020D00090BC704780B485B000AF78604FF00003CB
:1020E000FB600A4B1B68FB60FB6803F03803FB6076
:1020F000FA687B6842EA0303FB60044BFA681A60E3
:1021000007F11407BD4680BC704700BF00200240A5
:1021100080B483B000AF7860084B084A126822F0A0
:1021200008021A60054B054A11687A6841EA020202
:102130001A6007F10C07BD4680BC704700200240C2
:1021400080B483B000AF7860084B084A126822F070
:1021500010021A60054B054A11687A6841EA0202CA
:102160001A6007F10C07BD4680BC70470020024092
:1021700080B400AF044B054A5A60034B044A5A60CE
:10218000BD4680BC704700BF002002402301674568
:10219000AB89EFCD80B400AF044B054A5A60034BC6
:1021A000044A5A60BD4680BC704700BF0020024010
:1021B00023016745AB89EFCD80B400AF044B044ADF
:1021C000126942F080021A61BD4680BC704700BFB0
:1021D0000020024080B400AF044B044A126942F070
:1021E00080021A61BD4680BC704700BF00200240DB
:1021F00080B584B000AF78604FF00403FB734FF4F8
:10220000302000F029FC0346FB73FB7B042B1CD120
:10221000114B114A126942F002021A610E4B7A68A0
:102220005A610D4B0C4A126942F040021A614FF498
:10223000302000F011FC0346FB73074A064B196976
:1022400041F6FD7301EA03031361FB7B184607F1B6
:102250001007BD4680BD00BF0020024080B582B09F
:1022600000AF4FF00403FB714FF4302000F0F4FB9B
:102270000346FB71FB79042B19D1104B0F4A1269ED
:1022800042F004021A610D4B0C4A126942F04002FE
:102290001A614FF4302000F0DFFB0346FB71074A60
:1022A000064B196941F6FB7301EA03031361FB79DD
:1022B000184607F10807BD4680BD00BF0020024058
:1022C00080B582B000AF4FF00403FB714FF43020B3
:1022D00000F0E8FB0346FB71FB79042B19D1104B8E
:1022E0000F4A126942F004021A610D4B0C4A12693E
:1022F00042F040021A614FF4302000F0D3FB034655
:10230000FB71074A064B196941F6FB7301EA0303A7
:102310001361FB79184607F10807BD4680BD00BF71
:102320000020024080B582B000AF4FF0A503FB80D3
:102330004FF004037B7100F093FA0346002B02D0A8
:102340004FF00003FB804FF4302000F085FB034684
:102350007B717B79042B48D1274B284A9A60264B06
:10236000274A9A60244B244A126942F020021A61DB
:10237000214B214A126942F040021A614FF4302089
:1023800000F06AFB03467B717B79042B22D11A4A49
:10239000194B196941F6DF7301EA03031361164B08
:1023A000154A126942F010021A61164BFA881A8017
:1023B0004FF4005000F050FB03467B717B79052BF6
:1023C00013D00D4A0C4B196941F6EF7301EA030370
:1023D00013610AE07B79052B07D0074A064B196980
:1023E00041F6EF7301EA030313617B79184607F1A5
:1023F0000807BD4680BD00BF00200240230167459D
:10240000AB89EFCD00F8FF1F80B584B000AF7860D6
:1024100039604FF00403FB734FF00003BB604FF4CF
:10242000005000F019FB0346FB73FB7B042B33D1F8
:102430001C4B1C4A126942F001021A617B683A681F
:1024400092B21A804FF4005000F006FB0346FB7373
:10245000FB7B042B18D17B6803F10203BB60BB68D4
:102460003A684FEA124292B21A804FF4005000F0DC
:10247000F3FA0346FB730B4A0A4B196941F6FE73E4
:1024800001EA0303136107E0064A064B196941F6A6
:10249000FE7301EA03031361FB7B184607F1100783
:1024A000BD4680BD0020024080B584B000AF78609A
:1024B0000B467B804FF00403FB734FF4005000F099
:1024C000CBFA0346FB73FB7B042B16D10E4B0E4A53
:1024D000126942F001021A617B687A881A804FF40F
:1024E000005000F0B9FA0346FB73074A064B19691E
:1024F00041F6FE7301EA03031361FB7B184607F103
:102500001007BD4680BD00BF0020024080B584B0EA
:1025100000AF78600B46FB704FF00403FB734FF481
:10252000005000F099FA0346FB73FB7B042B20D18B
:10253000134B144A9A60124B134A9A60104B104A7C
:10254000126942F010021A617B68FA7892B21A801E
:102550004FF4005000F080FA0346FB73FB7B052B21
:1025600007D0074A064B196941F6EF7301EA0303E6
:102570001361FB7B184607F11007BD4680BD00BF05
:102580000020024023016745AB89EFCD80B586B0BE
:1025900000AF78604FF6FF73BB824FF6FF737B820C
:1025A0004FF6FF733B824FF6FF73FB814FF004033E
:1025B000FB757B686FEA03037B607B689BB203F06B
:1025C000FF03BB827B6803F47F434FEA13237B82C4
:1025D0007B6803F47F034FEA13433B827B684FEA37
:1025E0001363FB814FF4005000F036FA0346FB758D
:1025F000FB7D042B4FD12B4B2B4A9A60294B2B4A46
:102600009A60284B274A126942F010021A61BB8A6D
:10261000FF2B08D0264BBA8A1A814FF4005000F0E5
:102620001BFA0346FB75FB7D042B0BD17B8AFF2B2A
:1026300008D01F4B7A8A5A814FF4005000F00CFAF0
:102640000346FB75FB7D042B0BD13B8AFF2B08D087
:10265000174B3A8A9A814FF4005000F0FDF9034677
:10266000FB75FB7D042B0BD1FB89FF2B08D0104B96
:10267000FA89DA814FF4005000F0EEF90346FB7559
:10268000FB7D052B07D0074A064B196941F6EF730E
:1026900001EA03031361FB7D184607F11807BD46E5
:1026A00080BD00BF0020024023016745AB89EFCD0C
:1026B00000F8FF1F80B584B000AF0346FB714FF0F8
:1026C0000403FB734FF4302000F0C6F90346FB739C
:1026D000FB7B042B51D12C4B2C4A9A602A4B2C4A61
:1026E0009A60294B284A126942F020021A61264B4F
:1026F000254A126942F040021A614FF4302000F07E
:10270000ABF90346FB73FB7B042B2BD11E4A1E4BFC
:10271000196941F6DF7301EA030313611A4B1A4A80
:10272000126942F010021A61FB79002B04D0194B98
:102730004FF000021A8003E0164B4FF0A5021A80FA
:102740004FF4302000F088F90346FB73FB7B052B28
:1027500013D00D4A0C4B196941F6EF7301EA0303DC
:1027600013610AE0FB7B052B07D0074A064B19696A
:1027700041F6DF7301EA03031361FB7B184607F19F
:102780001007BD4680BD00BF002002402301674501
:10279000AB89EFCD00F8FF1F80B584B000AF1346C2
:1027A0000246FA800A46BA807B804FF00403FB732E
:1027B0001C4B1D4A9A601B4B1C4A9A604FF40050F8
:1027C00000F04AF90346FB73FB7B042B24D1154B25
:1027D000144A126942F010021A61154B7988BA88BE
:1027E00041EA020291B2FA8841EA020292B242F050
:1027F000F80292B25A804FF4005000F02DF90346CF
:10280000FB73FB7B052B07D0064A064B196941F683
:10281000EF7301EA03031361FB7B184607F110070E
:10282000BD4680BD0020024023016745AB89EFCD46
:1028300000F8FF1F80B400AF034BDB694FEA93033E
:102840001846BD4680BC70470020024080B400AFEF
:10285000024B1B6A1846BD4680BC704700200240F0
:1028600080B483B000AF4FF00003FB71094BDB690C
:1028700003F00203002B03D04FF00103FB7102E0D1
:102880004FF00003FB71FB79184607F10C07BD46BA
:1028900080BC70470020024080B483B000AF4FF08E
:1028A0000003FB71094B1B6803F02003002B03D0CE
:1028B0004FF00103FB7102E04FF00003FB71FB7965
:1028C000184607F10C07BD4680BC70470020024047
:1028D00080B483B000AF78600B46FB70FB78002BB0
:1028E00007D00B4B0A4A11697A6841EA02021A6161
:1028F00008E0074B064A11697A686FEA020201EAAA
:1029000002021A6107F10C07BD4680BC704700BF88
:102910000020024080B485B000AF78604FF0000323
:10292000FB737B68012B0ED1114BDB6903F00103B4
:10293000DBB2002B03D04FF00103FB7311E04FF02B
:102940000003FB730DE00A4BDA687B6802EA0303BD
:10295000002B03D04FF00103FB7302E04FF00003A4
:10296000FB73FB7B184607F11407BD4680BC70471C
:102970000020024080B483B000AF7860034B7A68D7
:10298000DA6007F10C07BD4680BC704700200240AA
:1029900080B483B000AF4FF00403FB71144BDB68CD
:1029A00003F00103DBB2002B03D04FF00103FB71F6
:1029B00016E00F4BDB6803F00403002B03D04FF04D
:1029C0000203FB710CE00A4BDB6803F01003002BE1
:1029D00003D04FF00303FB7102E04FF00403FB71DF
:1029E000FB79184607F10C07BD4680BC704700BF55
:1029F0000020024080B483B000AF4FF00403FB71AD
:102A0000144BDB6803F00103DBB2002B03D04FF063
:102A10000103FB7116E00F4BDB6803F00403002B8E
:102A200003D04FF00203FB710CE00A4BDB6803F0AC
:102A30001003002B03D04FF00303FB7102E04FF0B3
:102A40000403FB71FB79184607F10C07BD4680BCF7
:102A5000704700BF0020024080B584B000AF7860AE
:102A60004FF00403FB73FFF7C5FF0346FB7307E05A
:102A7000FFF7C0FF0346FB737B6803F1FF337B6006
:102A8000FB7B012B02D17B68002BF1D17B68002BF3
:102A900002D14FF00503FB73FB7B184607F11007CB
:102AA000BD4680BD80B584B000AF78604FF00403B0
:102AB000FB73FFF79FFF0346FB7307E0FFF79AFFE7
:102AC0000346FB737B6803F1FF337B60FB7B012BC9
:102AD00002D17B68002BF1D17B68002B02D14FF033
:102AE0000503FB73FB7B184607F11007BD4680BD4D
:102AF00080B582B000AF78607A682B4B9A420CD1D7
:102B00004FF480404FF0010101F022F84FF4804073
:102B10004FF0000101F01CF842E07A68234B9A4222
:102B20000CD14FF400304FF0010101F033F84FF4B5
:102B300000304FF0000101F02DF831E07A681C4BB5
:102B40009A420CD14FF480204FF0010101F022F89D
:102B50004FF480204FF0000101F01CF820E07A686B
:102B6000144B9A420CD14FF400204FF0010101F0B8
:102B700011F84FF400204FF0000101F00BF80FE0C6
:102B80007A680D4B9A420BD14FF480104FF001013F
:102B900001F000F84FF480104FF0000100F0FAFF50
:102BA00007F10807BD4680BD0038014000440040E1
:102BB00000480040004C00400050004080B58CB000
:102BC00000AF786039604FF00003FB624FF0000304
:102BD000BB624FF000037B624FF000033B624FF09B
:102BE0000003FB617B68FB617B681B8A9BB2FB6215
:102BF000FA6A4CF6FF7302EA0303FB623B68DB8868
:102C0000FA6A42EA0303FB62FB6A9AB27B681A82A1
:102C10007B689B899BB2FB62FA6A4EF6F31302EA69
:102C20000303FB623B689A883B681B8942EA030303
:102C30009AB23B685B8942EA03039BB2FA6A42EAB2
:102C40000303FB62FB6A9AB27B689A817B689B8A6A
:102C50009BB2FB62FA6A4FF6FF4302EA0303FB6290
:102C60003B689B89FA6A42EA0303FB62FB6A9AB2F9
:102C70007B689A8207F10803184600F045FEFA695E
:102C8000384B9A4202D17B69BB6201E03B69BB626F
:102C90007B689B899BB29BB21BB2002B0FDABA6A8E
:102CA00013464FEA83039B184FEA83029A183B6846
:102CB0001B684FEA4303B2FBF3F37B620EE0BA6A90
:102CC00013464FEA83039B184FEA83029A183B6826
:102CD0001B684FEA8303B2FBF3F37B627A6A224BF1
:102CE000A3FB02134FEA53134FEA0313FB62FB6A81
:102CF0004FEA13134FF0640202FB03F37A6AD31A0C
:102D00003B627B689B899BB29BB21BB2002B10DAA3
:102D10003B6A4FEAC30303F13202134BA3FB0213D6
:102D20004FEA531303F00703FA6A42EA0303FB6214
:102D30000FE03B6A4FEA031303F132020A4BA3FB95
:102D400002134FEA531303F00F03FA6A42EA030334
:102D5000FB62FB6A9AB27B681A8107F13007BD46B5
:102D600080BD00BF003801401F85EB5180B483B0A7
:102D700000AF78607B684FF416521A607B684FF0A2
:102D800000029A807B684FF00002DA807B684FF087
:102D900000021A817B684FF00C025A817B684FF069
:102DA00000029A8107F10C07BD4680BC704700BF46
:102DB00080B485B000AF786039604FF00003FB60ED
:102DC0007B681B8A9BB2FB60FA684FF2FF0302EA42
:102DD0000303FB603B681A883B685B8842EA030395
:102DE0009AB23B689B8842EA03039AB23B68DB884D
:102DF00042EA03039BB2FA6842EA0303FB60FB6802
:102E00009AB27B681A8207F11407BD4680BC7047EE
:102E100080B483B000AF78607B684FF000021A8006
:102E20007B684FF000025A807B684FF000029A8066
:102E30007B684FF00002DA8007F10C07BD4680BCCA
:102E4000704700BF80B483B000AF78600B46FB7062
:102E5000FB78002B08D07B689B899BB243F400531E
:102E60009AB27B689A8107E07B689B899BB223F4C6
:102E700000539AB27B689A8107F10C07BD4680BC6B
:102E8000704700BF80B487B000AF786013460A4631
:102E90007A807B704FF000033B614FF00003FB60D2
:102EA0004FF00003BB604FF000037B617B687B61E8
:102EB0007B88DBB24FEA5313DBB23B617B8803F0C4
:102EC0001F03FB60FB684FF0010202FA03F3BB60D3
:102ED0003B69012B04D17B6903F10C037B610BE09F
:102EE0003B69022B04D17B6903F110037B6103E092
:102EF0007B6903F114037B617B78002B07D07B692E
:102F00007A691168BA6841EA02021A6008E07B69CE
:102F10007A691168BA686FEA020201EA02021A606D
:102F200007F11C07BD4680BC704700BF80B483B06A
:102F300000AF786013460A467A807B707B78002B5E
:102F400009D07B689B8A9AB27B8842EA03039AB2D3
:102F50007B689A820BE07B689B8A9AB27B886FEAD7
:102F600003039BB202EA03039AB27B689A8207F1D9
:102F70000C07BD4680BC704780B483B000AF78605A
:102F80000B46FB707B681B8A9BB223F00F039AB23F
:102F90007B681A827B681B8A9AB2FB789BB242EAF2
:102FA00003039AB27B681A8207F10C07BD4680BC06
:102FB000704700BF80B483B000AF78600B467B8061
:102FC0007B689B899BB223F400639AB27B689A81E9
:102FD0007B689B899AB27B8842EA03039AB27B683A
:102FE0009A8107F10C07BD4680BC704780B483B05E
:102FF00000AF78600B46FB70FB78002B08D07B6835
:103000009B899BB243F002039AB27B689A8107E0E6
:103010007B689B899BB223F002039AB27B689A81FA
:1030200007F10C07BD4680BC704700BF80B483B079
:1030300000AF78600B467B807B681B8A9BB223F0D5
:1030400020039AB27B681A827B681B8A9AB27B88BB
:1030500042EA03039AB27B681A8207F10C07BD4665
:1030600080BC704780B483B000AF78600B46FB70C3
:10307000FB78002B08D07B681B8A9BB243F480430B
:103080009AB27B681A8207E07B681B8A9BB223F4A2
:1030900080439AB27B681A8207F10C07BD4680BC58
:1030A000704700BF80B483B000AF78600B467B8070
:1030B0007B884FEAC3534FEAD3539AB27B689A8016
:1030C00007F10C07BD4680BC704700BF80B483B0D9
:1030D00000AF78607B689B889BB24FEAC3534FEA8E
:1030E000D3539BB2184607F10C07BD4680BC70470E
:1030F00080B483B000AF78607B689B899BB243F05B
:1031000001039AB27B689A8107F10C07BD4680BC27
:10311000704700BF80B483B000AF78600B46FB708F
:103120007B681B8B9BB203F0FF039AB27B681A8308
:103130007B681B8B9AB2FB789BB24FEA03239BB24E
:1031400042EA03039AB27B681A8307F10C07BD4673
:1031500080BC704780B483B000AF78600B46FB70D2
:103160007B681B8B9BB223F0FF039AB27B681A83A8
:103170007B681B8B9AB2FB789BB242EA03039AB23C
:103180007B681A8307F10C07BD4680BC704700BFFF
:1031900080B483B000AF78600B46FB70FB78002BE7
:1031A00008D07B689B8A9BB243F020039AB27B686D
:1031B0009A8207E07B689B8A9BB223F020039AB235
:1031C0007B689A8207F10C07BD4680BC704700BF40
:1031D00080B483B000AF78600B46FB70FB78002BA7
:1031E00008D07B689B8A9BB243F010039AB27B683D
:1031F0009A8207E07B689B8A9BB223F010039AB205
:103200007B689A8207F10C07BD4680BC704700BFFF
:1032100080B483B000AF78600B46FB70FB78002B66
:1032200008D07B689B8A9BB243F008039AB27B6804
:103230009A8207E07B689B8A9BB223F008039AB2CC
:103240007B689A8207F10C07BD4680BC704700BFBF
:1032500080B483B000AF78600B46FB70FB78002B26
:103260000AD07B689B899BB26FEA43436FEA534362
:103270009AB27B689A8109E07B689B899BB24FEA8E
:1032800043434FEA53439AB27B689A8107F10C0794
:10329000BD4680BC704700BF80B483B000AF78608B
:1032A0000B46FB70FB78002B08D07B689B8A9BB297
:1032B00043F400639AB27B689A8207E07B689B8A3A
:1032C0009BB223F400639AB27B689A8207F10C07E1
:1032D000BD4680BC704700BF80B483B000AF78604B
:1032E0000B467B807B689B8A9BB223F004039AB2D7
:1032F0007B689A827B689B8A9AB27B8842EA030346
:103300009AB27B689A8207F10C07BD4680BC704771
:1033100080B483B000AF78600B46FB70FB78002B65
:1033200008D07B689B8A9BB243F002039AB27B6809
:103330009A8207E07B689B8A9BB223F002039AB2D1
:103340007B689A8207F10C07BD4680BC704700BFBE
:1033500080B485B000AF78600B467B804FF00003EF
:10336000FB737B681B889AB27B8802EA03039BB2DB
:10337000002B03D04FF00103FB7302E04FF000037A
:10338000FB73FB7B184607F11407BD4680BC7047F2
:1033900080B483B000AF78600B467B807B886FEA97
:1033A00003039AB27B681A8007F10C07BD4680BC04
:1033B000704700BF80B487B000AF78600B467B8059
:1033C0004FF00003FB604FF000037B614FF0000300
:1033D000BB604FF00003FB747B88DBB24FEA5313F2
:1033E000DBB2BB607B8803F01F037B617B694FF01E
:1033F000010202FA03F37B61BB68012B07D17B68F2
:103400009B899BB27A6902EA03037B6111E0BB6886
:10341000022B07D17B681B8A9BB27A6902EA0303FD
:103420007B6106E07B689B8A9BB27A6902EA0303B0
:103430007B617B884FEA13239BB2FB60FB684FF0F4
:10344000010202FA03F3FB607B681B889BB2FA68F7
:1034500002EA0303FB607B69002B06D0FB68002BAC
:1034600003D04FF00103FB7402E04FF00003FB7444
:10347000FB7C184607F11C07BD4680BC704700BFA7
:1034800080B485B000AF78600B467B804FF00003BE
:10349000FB814FF00003BB817B884FEA1323FB8144
:1034A000FB894FF0010202FA03F3BB81BB896FEA8B
:1034B00003039AB27B681A8007F11407BD4680BCEB
:1034C000704700BF80B400AF134B134A126842F03C
:1034D00001021A60104A104B5968104B01EA0303AD
:1034E00053600D4A0C4B1B6823F0847323F4803324
:1034F0001360094B084A126822F480221A60064BB6
:10350000054A526822F4FE025A60034B4FF41F0230
:103510009A60BD4680BC7047001002400000FFF872
:1035200080B483B000AF7860134B134A126822F462
:1035300080321A60104B104A126822F480221A60FE
:103540007B68B3F5803F03D0B3F5802F07D00DE043
:10355000094B094A126842F480321A6006E0064BB1
:10356000054A126842F4A0221A6000BF07F10C0756
:10357000BD4680BC704700BF0010024080B582B0DD
:1035800000AF4FF000033B604FF00003FB714FF0C2
:103590000003BB714FF0310000F04EFB0346BB71DE
:1035A0003B6803F101033B603B68B3F5A06F02D0B9
:1035B000BB79002BEED04FF0310000F03DFB03460D
:1035C000002B03D04FF00103FB7102E04FF000032A
:1035D000FB71FB79184607F10807BD4680BD00BFA7
:1035E00080B485B000AF0346FB714FF00003FB6071
:1035F0000A4B1B68FB60FB6823F0F803FB60FB7958
:103600004FEAC303FA6842EA0303FB60034BFA681C
:103610001A6007F11407BD4680BC704700100240D5
:1036200080B483B000AF0346FB71044BFA791A6093
:1036300007F10C07BD4680BC704700BF0000424246
:1036400080B485B000AF786039604FF00003FB6054
:103650000B4B5B68FB60FB6823F47C13FB607A68B0
:103660003B6842EA0303FA6842EA0303FB60044B47
:10367000FA685A6007F11407BD4680BC704700BF66
:103680000010024080B483B000AF0346FB71044BCE
:10369000FA791A6007F10C07BD4680BC704700BF7D
:1036A0006000424280B485B000AF78604FF0000304
:1036B000FB600A4B5B68FB60FB6823F00303FB6065
:1036C000FA687B6842EA0303FB60044BFA685A60BD
:1036D00007F11407BD4680BC704700BF00100240D0
:1036E00080B400AF044B5B68DBB203F00C03DBB2C9
:1036F0001846BD4680BC70470010024080B485B0BB
:1037000000AF78604FF00003FB600A4B5B68FB6022
:10371000FB6823F0F003FB60FA687B6842EA03036E
:10372000FB60044BFA685A6007F11407BD4680BC81
:10373000704700BF0010024080B485B000AF7860D1
:103740004FF00003FB600A4B5B68FB60FB6823F4EF
:10375000E063FB60FA687B6842EA0303FB60044BAA
:10376000FA685A6007F11407BD4680BC704700BF75
:103770000010024080B485B000AF78604FF00003C5
:10378000FB600B4B5B68FB60FB6823F46053FB60E2
:103790007B684FEAC303FA6842EA0303FB60044B09
:1037A000FA685A6007F11407BD4680BC704700BF35
:1037B0000010024080B483B000AF02460B46FA719D
:1037C000BB71BB79002B09D00D4B0D4A1278D1B2D9
:1037D000FA7941EA0202D2B21A700BE0084B084AA9
:1037E0001278D1B2FA796FEA0202D2B201EA020289
:1037F000D2B21A7007F10C07BD4680BC704700BFFB
:103800000910024080B483B000AF7860034B7A683F
:103810001A6007F10C07BD4680BC7047D8004242D1
:1038200080B485B000AF78604FF00003FB600A4BB6
:103830005B68FB60FB6823F44043FB60FA687B68CD
:1038400042EA0303FB60044BFA685A6007F114076D
:10385000BD4680BC704700BF0010024080B483B0FA
:1038600000AF0346FB710E4B4FF000021A700C4B79
:103870004FF000021A70FB79012B02D0042B05D007
:1038800009E0074B4FF001021A7004E0044B4FF0BF
:1038900005021A7000BF07F10C07BD4680BC7047D7
:1038A0002010024080B483B000AF0346FB71044B8C
:1038B000FA791A6007F10C07BD4680BC704700BF5B
:1038C0008004424280B483B000AF7860054B054A63
:1038D000116A7A6841EA02021A6207F10C07BD46D2
:1038E00080BC70470010024080B483B000AF034634
:1038F000FB71044BFA791A6007F10C07BD4680BCD6
:10390000704700BF3C04424280B487B000AF78608B
:103910004FF000037B614FF000033B614FF0000369
:10392000FB604FF00003BB60514B5B6803F00C037E
:103930007B617B69042B07D0082B09D0002B35D184
:103940007B684C4A1A6035E07B684A4A1A6031E06D
:10395000474B5B6803F470133B61454B5B6803F4B2
:103960008033FB603B694FEA934303F102033B6101
:10397000FB68002B06D13B693F4A02FB03F27B68E0
:103980001A6017E03A4B5B6803F40033002B06D053
:103990003B69394A02FB03F27B681A600AE03B6923
:1039A000344A02FB03F27B681A6003E07B68314A09
:1039B0001A6000BF2E4B5B6803F0F0037B617B69EC
:1039C0004FEA13137B612D4A7B69D3181B78DBB256
:1039D000BB607B681A68BB6822FA03F27B685A6096
:1039E000234B5B6803F4E0637B617B694FEA13233D
:1039F0007B61224A7B69D3181B78DBB2BB607B6892
:103A00005A68BB6822FA03F27B689A60184B5B68BD
:103A100003F460537B617B694FEAD3237B61174AD0
:103A20007B69D3181B78DBB2BB607B685A68BB68C4
:103A300022FA03F27B68DA600D4B5B6803F44043C3
:103A40007B617B694FEA93337B610D4A7B69D318B5
:103A50001B78DBB2BB607B68DA68BB68B2FBF3F251
:103A60007B681A6107F11C07BD4680BC704700BF28
:103A70000010024000127A0000093D001C000020E6
:103A80002C00002080B483B000AF78600B46FB7040
:103A9000FB78002B07D00B4B0A4A51697A6841EA40
:103AA00002025A6108E0074B064A51697A686FEAD8
:103AB000020201EA02025A6107F10C07BD4680BC0E
:103AC000704700BF0010024080B483B000AF786040
:103AD0000B46FB70FB78002B07D00B4B0A4A916911
:103AE0007A6841EA02029A6108E0074B064A916946
:103AF0007A686FEA020201EA02029A6107F10C0792
:103B0000BD4680BC704700BF0010024080B483B047
:103B100000AF78600B46FB70FB78002B07D00B4B97
:103B20000A4AD1697A6841EA0202DA6108E0074B81
:103B3000064AD1697A686FEA020201EA0202DA6192
:103B400007F10C07BD4680BC704700BF0010024063
:103B500080B483B000AF78600B46FB70FB78002B1D
:103B600007D00B4B0A4AD1687A6841EA0202DA6050
:103B700008E0074B064AD1687A686FEA020201EA58
:103B80000202DA6007F10C07BD4680BC704700BF37
:103B90000010024080B483B000AF78600B46FB7029
:103BA000FB78002B07D00B4B0A4A11697A6841EA6F
:103BB00002021A6108E0074B064A11697A686FEA47
:103BC000020201EA02021A6107F10C07BD4680BC3D
:103BD000704700BF0010024080B483B000AF0346BE
:103BE000FB71044BFA791A6007F10C07BD4680BCE3
:103BF000704700BF4004424280B483B000AF034628
:103C0000FB71044BFA791A6007F10C07BD4680BCC2
:103C1000704700BF4C00424280B483B000AF0346FF
:103C2000FB71044BFA791A7007F10C07BD4680BC92
:103C3000704700BF0710024080B487B000AF034652
:103C4000FB714FF00003FB604FF000037B614FF00E
:103C50000003FB74FB794FEA5313DBB2FB60FB6894
:103C6000012B03D1144B1B687B6109E0FB68022B1D
:103C700003D1114B1B6A7B6102E00F4B5B6A7B61D6
:103C8000FB7903F01F03FB60FB687A6922FA03F3F8
:103C900003F00103DBB2002B03D04FF00103FB74F0
:103CA00002E04FF00003FB74FB7C184607F11C0791
:103CB000BD4680BC704700BF0010024080B400AF1A
:103CC000044B044A526A42F080725A62BD4680BC7C
:103CD000704700BF0010024080B485B000AF0346BB
:103CE000FB714FF00003FB730A4B9A68FB7902EA01
:103CF0000303002B03D04FF00103FB7302E04FF0EE
:103D00000003FB73FB7B184607F11407BD4680BC1C
:103D1000704700BF0010024080B483B000AF03467C
:103D2000FB71044BFA791A7007F10C07BD4680BC91
:103D3000704700BF0A100240032A2DE9F00109D89C
:103D40002AB10023CC5CC45401339342FAD1BDE8BC
:103D5000F00170470B468218014603E024780133D6
:103D600001F8014B11F0030F1C46F7D113F00305C6
:103D70005DD06E42C5F1040CED009B594FEACC0CAE
:103D800008E00434A7593B4607FA0CF748EA07074E
:103D900041F8047B571A23FA05F8032FF1DC03E0FE
:103DA00014F8013B01F8013B8A42F9D8CFE753F8F8
:103DB000404C41F8404C53F83C4C41F83C4C53F8D3
:103DC000384C41F8384C53F8344C41F8344C53F8E3
:103DD000304C41F8304C53F82C4C41F82C4C53F8F3
:103DE000284C41F8284C53F8244C41F8244C53F803
:103DF000204C41F8204C53F81C4C41F81C4C53F813
:103E0000184C41F8184C53F8144C41F8144C53F822
:103E1000104C41F8104C53F80C4C41F80C4C53F832
:103E2000084C41F8084C53F8044C41F8044C561A1D
:103E30001D460C46403340313F2EB8DC2B460FE088
:103E400053F8101C44F8101C53F80C1C44F80C1CBC
:103E500053F8081C44F8081C53F8041C44F8041CCC
:103E6000161B21461D46103410330F2EE8DC2B465E
:103E700002E0246841F8044B551A1C46032D03F157
:083E80000403F6DC90E700BF2B
:103E8800557365722043616E63656C6C6564200DC3
:103E98000A0000004572726F722C20496E707574AA
:103EA80020616761696E3A200D0A00000A0D000062
:103EB80008200800436F6D6D616E64207374726929
:103EC8006E672073697A65206F766572666C6F77A6
:103ED8000D0A000057726974652050726F7465632B
:103EE80074696F6E2064697361626C65642E2E2E2E
:103EF8000D0A00002E2E2E616E6420612053797306
:103F080074656D2052657365742077696C6C2062E6
:103F1800652067656E65726174656420746F2072D0
:103F2800652D6C6F616420746865206E6577206FFD
:103F38007074696F6E2062797465730D0A000000F1
:103F48004572726F723A20466C61736820777269A5
:103F5800746520756E70726F74656374696F6E2016
:103F68006661696C65642E2E2E0D0A00466C6173BD
:103F780068206D656D6F7279206E6F742077726935
:103F880074652070726F7465637465640D0A00004F
:103F98000D0A3D3D3D3D3D3D3D3D3D3D3D3D3D3DAC
:103FA8003D3D3D3D204D61696E204D656E75203D5E
:103FB8003D3D3D3D3D3D3D3D3D3D3D3D3D3D3D3D29
:103FC8003D3D3D3D3D3D3D3D3D3D3D0D0A0A000029
:103FD8002020446F776E6C6F616420496D6167655E
:103FE80020546F207468652053544D333246313065
:103FF8007820496E7465726E616C20466C617368D6
:10400800202D2D2D2D2D2D2D20310D0A0A000000DB
:10401800202055706C6F616420496D61676520468A
:10402800726F6D207468652053544D3332463130B9
:104038007820496E7465726E616C20466C61736895
:10404800202D2D2D2D2D2D2D20320D0A0A0000009A
:1040580020204578656375746520546865204E6531
:10406800772050726F6772616D202D2D2D2D2D2DAB
:104078002D2D2D2D2D2D2D2D2D2D2D2D2D2D2D2D68
:104088002D2D2D2D2D2D2D2D20330D0A0A0000004C
:10409800202044697361626C6520746865207772BA
:1040A8006974652070726F74656374696F6E202D12
:1040B8002D2D2D2D2D2D2D2D2D2D2D2D2D2D2D2D28
:1040C8002D2D2D2D2D2D2D2D20340D0A0A0000000B
:1040D8003D3D3D3D3D3D3D3D3D3D3D3D3D3D3D3D08
:1040E8003D3D3D3D3D3D3D3D3D3D3D3D3D3D3D3DF8
:1040F8003D3D3D3D3D3D3D3D3D3D3D3D3D3D3D3DE8
:104108003D3D3D3D3D3D3D3D3D3D0D0A0A00000024
:10411800496E76616C6964204E756D626572202106
:10412800203D3D3E20546865206E756D62657220A5
:1041380073686F756C642062652065697468657260
:1041480020312C2032206F7220330D00496E7661A9
:104158006C6964204E756D6265722021203D3D3E7C
:1041680020546865206E756D6265722073686F757E
:104178006C642062652065697468657220312C2042
:10418800322C2033206F7220340D0000576169747F
:10419800696E6720666F72207468652066696C6551
:1041A80020746F2062652073656E74202E2E2E2079
:1041B8002870726573732027612720746F206162ED
:1041C8006F7274290A0D00000A0A0D2050726F6779
:1041D80072616D6D696E6720436F6D706C65746593
:1041E80064205375636365737366756C6C79210A13
:1041F8000D2D2D2D2D2D2D2D2D2D2D2D2D2D2D2D07
:104208002D2D2D2D2D2D2D2D2D2D2D2D2D2D2D2DD6
:104218002D0D0A204E616D653A2000000A0D2053CD
:10422800697A653A200000002042797465730D0AA6
:10423800000000002D2D2D2D2D2D2D2D2D2D2D2D5A
:104248002D2D2D2D2D2D2D0A000000000A0A0D54AC
:10425800686520696D6167652073697A652069738F
:1042680020686967686572207468616E2074686583
:1042780020616C6C6F776564207370616365206D75
:10428800656D6F7279210A0D000000000A0A0D564B
:104298006572696669636174696F6E206661696CCD
:1042A8006564210A0D0000000D0A0A41626F7274EC
:1042B800656420627920757365722E0A0D0000000E
:1042C8000A0D4661696C656420746F2072656365C8
:1042D800697665207468652066696C65210A0D0039
:1042E8002020202020202020202000000A0A0D5312
:1042F800656C6563742052656365697665204669F7
:104308006C65202E2E2E2028707265737320616EC6
:1043180079206B657920746F2061626F7274290A45
:104328000D00000055706C6F61646564466C6173C4
:1043380068496D6167652E62696E00000A0D4572F5
:10434800726F72204F636375726564207768696C59
:1043580065205472616E736D697474696E67204666
:10436800696C650A0D0000000A0D46696C652054E9
:104378007261736D697474656420537563636573E2
:104388007366756C6C79200A0D0000000D0A0A41ED
:10439800626F7274656420627920757365722E0A83
:1043A8000D0000000D0A3D3D3D3D3D3D3D3D3D3D7F
:1043B8003D3D3D3D3D3D3D3D3D3D3D3D3D3D3D3D25
:1043C8003D3D3D3D3D3D3D3D3D3D3D3D3D3D3D3D15
:1043D8003D3D3D3D3D3D3D3D3D3D3D3D3D3D3D3D05
:1043E8003D3D3D3D3D3D3D3D3D3D3D3D00000000E9
:1043F8000D0A3D20202020202020202020202020C1
:104408002028432920434F505952494748542032C5
:104418003031302053544D6963726F656C65637435
:10442800726F6E69637320202020202020202020B6
:10443800202020202020203D000000000D0A3D20E3
:104448002020202020202020202020202020202064
:104458002020202020202020202020202020202054
:104468002020202020202020202020202020202044
:104478002020202020202020202020202020202034
:104488002020203D000000000D0A3D202020202093
:10449800496E2D4170706C69636174696F6E20504C
:1044A800726F6772616D6D696E67204170706C69BB
:1044B800636174696F6E20202856657273696F6E28
:1044C80020332E332E302920202020202020203D6C
:1044D800000000000D0A3D20202020202020202060
:1044E80020202020202020202020202020202020C4
:1044F800202020202020202020204279204D4344C5
:10450800204170706C69636174696F6E20546561D5
:104518006D202020202020202020203D00000000A9
:084528000D0A0D0A000000005D
:1045300000A24A0400000000000000000102030481
:104540000607080900300008000804000000000009
:104550000102030401020304060708090204060815
:040000050800025598
:00000001FF
